:020000040800F2
:1000000090070020E5010008055900084116000886
:1000100001590008C11200082B5E00080000000012
:10002000000000000000000000000000915A0008DD
:10003000C51200080000000079590008A55B0008FF
:10004000FF010008FF010008FF010008FF01000890
:10005000FF010008FF010008FF010008FF01000880
:10006000FF010008FF010008FF010008FF01000870
:10007000FF010008FF010008FF010008FF01000860
:10008000FF010008FF010008FF010008FF01000850
:10009000FF010008FF010008FF010008FF01000840
:1000A000FF010008FF010008FF010008FF01000830
:1000B000FF010008FF010008FF010008FF01000820
:1000C000FF010008FF010008FF010008FF01000810
:1000D000FF010008095C0008FF010008FF0100089B
:1000E000FF010008FF010008FF010008FF010008F0
:1000F000FF010008FF010008FF010008FF010008E0
:10010000FF010008FF010008FF010008FF010008CF
:10011000FF010008FF010008FF010008FF010008BF
:10012000FF010008FF010008FF010008FF010008AF
:1001300000F002F800F047F80AA090E8000C8244B2
:100140008344AAF10107DA4501D100F03CF8AFF28F
:10015000090EBAE80F0013F0010F18BFFB1A43F0A5
:1001600001031847E884000008850000103A24BF06
:1001700078C878C1FAD8520724BF30C830C144BF0C
:1001800004680C607047000000230024002500264E
:10019000103A28BF78C1FBD8520728BF30C148BFEA
:1001A0000B607047662906F08484002070471FB5F5
:1001B00000F04CFB04000020002105F0C3FFE060CC
:1001C0001FBD10B510BD00F045FC1146FFF7EFFF55
:1001D00005F0FAFE00F063FC03B4FFF7F2FF03BC86
:1001E00005F040FE0948804709480047FEE7FEE762
:1001F000FEE7FEE7FEE7FEE7FEE7FEE7FEE7FEE7D7
:1002000004480549054A064B70470000A95B0008F1
:100210003101000890010020900700209003002089
:1002200090030020704700000FB4044910B503AAE2
:10023000029800F0F9FA10BC5DF814FB38000020B9
:100240000FB41CB5074B06AA7B446946009005987D
:1002500000F0D1FA0020694600F0E0FA1CBC5DF81D
:1002600014FB0000D105000070B5044685690068E4
:10027000C10601D5302600E02026C00707D070BD9A
:10028000D4E9012130469047206A401C20626D1E4F
:10029000F6D570BD70B5044685690078C00707D1F2
:1002A00070BDD4E9012120209047206A401C2062C3
:1002B0006D1EF6D570BD2DE9F0474FF0000A894656
:1002C0000446C0F820A02046E1688847002876D080
:1002D000252806D0D4E901219047206A401C2062DD
:1002E000F1E7E168204600258847C4F81CA00646CF
:1002F0000027C4F818A02A2E09D0304605F0ABFD1F
:1003000038B304EB8708303EC8F8186019E059F894
:10031000041B204604EB87029161E1688847012FA6
:10032000064618D1E069002820DA25F020051DE0F6
:10033000D8F8180000EB800006EB40003038C8F811
:1003400018002046E1688847064605F084FD00282D
:10035000EED1012F0AD02E2E08D12046E168884721
:100360007F1C0646022F45F02005C4DBA06900284B
:1003700003DA404245F00105A061E80701D025F00D
:100380001005B6B1A6F14100192802D8203645F46F
:1003900000654A463146204625604D46FFF702FF7C
:1003A00058B1012806D0ED1D25F0070000F108091D
:1003B00089E704E005F1040985E730468AE7206A09
:1003C000BDE8F087704770477047704770472DE968
:1003D000FF4F0C461E464FF0FF378BB0D2E90001AD
:1003E000DDF860800A908A46C1F30A5505B93D469A
:1003F000002108464FF00000BAF1000F00F4400061
:1004000005DA00EB80004FF4400101EA50004FEAAA
:100410009059B9F1010F00DDB9460A9850EA4A0037
:100420000ED044F61050A5F2FF3545432F14B8F115
:10043000000F1ED07542291E1EDDC9F100021CE00E
:10044000B8F1010F4FF0000001D0302103E0F2437A
:1004500005E02154401CB042FBDB30460022002165
:1004600021540B99C1F80880C1E900200FB0BDE804
:10047000F08FBD1B6D1CDEE74A4600DA694206A814
:1004800000F06EFA06AB93E8070003AB83E80700C1
:1004900050460A9900F04CFB8DE80700A0F500508B
:1004A0001F3800900398002D0ADD42F21F014A46D2
:1004B0000844002303A90390684600F0B5FD09E055
:1004C000A0F500504A461F38002303A90390684650
:1004D00000F0BFFD8DE807000004000C03D04FF0D2
:1004E000FF30410800E01046B8F1000F03D00022B1
:1004F000009215461EE0751E05D400F0ABF93032AF
:1005000062556D1EF9D5B3460122084302D0002280
:100510007F1C04E02078302801D100227F1E002AB1
:10052000099784D01DE0112D07DA00F093F93032DD
:1005300062556D1C50EA0102F5D1084302D00098C3
:10054000C8B10EE00021681E05E0235C625C6354C4
:100550002254401E491C8142F7DBAB46A81B401EBB
:100560000990002004F80B000B98099AC0F8088045
:10057000C0E9002B7AE711264FF0000857E72DE974
:10058000F04F88460446D21D22F0070191B0D1E910
:100590000001CDE90A0105F04AFC02460B98C00FA4
:1005A00001D02D2007E02068810701D52B2002E033
:1005B000202101EAC000032A099001D0072A05DBA7
:1005C00003464146204600F08BF90BE12078800677
:1005D00001D5E06900E00620B8F1650F814606D03C
:1005E000B8F1660F18D0B8F1670F70D131E0002074
:1005F000B9F1110F009001DB112301E009F10103B2
:100600000AAA01A90CA8FFF7E2FEDDE90C7000269A
:1006100009F10105834647E001204B4600904FF069
:1006200000470AAA01A90CA8FFF7D1FEDDE90DB029
:100630000C995D46002610B909F101000D18B9EBBF
:10064000050003D4C0F1FF3609F10105A5EB09004F
:100650002BE0B9F1010F01DA4FF001090020B9F1E7
:10066000110F0090484601DD112300E003460AAA5D
:1006700001A90CA8FFF7ABFEDDE90C704D46002682
:100680008346207800070AD4AB4500DA5D4601A80E
:10069000012D04DD411911F8011C302907D04F4507
:1006A00002DA17F1040F04DA012082460FE06D1E12
:1006B000EEE7002F02DCED1B3E4403E0781CA8426D
:1006C00000DD7D1CB81B00F1010A4FF000472078C7
:1006D000000703D4AA4501DB4FF0FF3A0021B7F130
:1006E000004F0DF143088DF8431024D002202B2336
:1006F000002F01DA7F422D230A21021EA0F1010002
:1007000000DC5FB197FBF1FC97FBF1F201FB1C7C75
:1007100017460CF1300C08F801CDEEE7A8F1010006
:1007200003702188090501D5452100E06521A0F16C
:10073000010800F8011C09980FA9A1EB0807FF1D8B
:1007400000B10120411901EBEA70A1693844081A8F
:10075000401EA0612078C00602D42046FFF784FD29
:10076000099828B1D4E901219047206A401C2062F1
:100770002078C00622D52046FFF776FD1EE0002E29
:1007800004DBB34502DD01A8805D00E03020D4E940
:1007900001219047206A401C2062761CAAF10100CA
:1007A0005FEA000A0AD100F051F8C0680168405CB5
:1007B000D4E901219047206A401C2062281EA5F13F
:1007C0000105DCDC07E0D4E9012118F8010B9047B2
:1007D000206A401C2062381EA7F10107F3DC204686
:1007E000FFF758FD032011B041E6000001694A1CE3
:1007F00002610878704700B58FB0CDE90131002162
:10080000059105497944CDE9031011466846FFF783
:1008100052FD0FB000BD0000E5FFFFFF0A6802F8BF
:10082000010B0A6070470000074B70B50D467B4412
:10083000FFF7E1FF0446284600F004F910B14FF03D
:10084000FF3070BD204670BD6757000000487047FC
:100850004C01002030B5B0F10A024FEA900E71F160
:1008600000034EEA817EB0EB0E0061EB91014FEA8E
:10087000101E4EEA017E10EB0E0041EB11114FEA03
:10088000102E4EEA016E10EB0E0041EB11214FEAE3
:10089000104E4EEA014E10EB0E0041EB1141401894
:1008A00041F100014FEAD00040EA41704FEAD10126
:1008B00010EB80054FEA810444EA907444EB010494
:1008C0006D1944EB0404521BA3414FF0000348BFD1
:1008D0000A3200D530BD401C41F1000130BD00009E
:1008E0002DE9F0411F46044603260168072A01F45A
:1008F000006004DB08B116A505E016A503E008B109
:1009000015A500E015A521F010002060A069C01E0B
:10091000A0610FB1401EA0612046FFF7A5FC4FB1BA
:10092000D4E9012138469047206A401C2062C01C4F
:10093000206206E0206AFAE7D4E9012115F8010BEC
:100940009047761EF8D22046FFF7A4FCBDE8F08160
:100950004E414E006E616E00494E4600696E660063
:100960002DE9F047814616468AB0354878440DC8CF
:100970008DE80D0032487844801C03AC0DC884E833
:100980000D0041F69B300844372190FBF1F290FBBB
:10099000F1F5A5F1800501FB12041B3C02D5644270
:1009A000012000E00020DFF898A080460027FA44EC
:1009B000AAF1BE0A0EE0E0070AD03246684607EB0D
:1009C000470101230AEB810100F043FB8DE807009A
:1009D00064107F1C002CEED1194F7F44AE3F19E00C
:1009E000E80715D007EB04100DF1180A90E80E0087
:1009F0008AE80E00C068F04201D19819089032468A
:100A0000012306A903A800F024FB03AB83E8070039
:100A10006D10641C002DE3D14FF00103324669468E
:100A2000B8F1000F03A802D000F0FEFA01E000F0D8
:100A300010FBC9E90001C9F808200AB0BDE8F08739
:100A4000C47C0000007B00F08000704700487047C5
:100A50002C0100207546FFF7F9FFAE4605006946F8
:100A6000534620F00700854618B020B5FFF7C8FBB5
:100A7000BDE820404FF000064FF000074FF000089F
:100A80004FF0000B21F00701AC46ACE8C009ACE820
:100A9000C009ACE8C009ACE8C0098D46704710B584
:100AA0000446AFF300802046BDE81040FFF794BB3A
:100AB0004FF0013C50F8042B51F8043B9A4221D1ED
:100AC000A2EB0C03934313EACC1317D150F8042B79
:100AD00051F8043B9A4215D1A2EB0C03934313EA5D
:100AE000CC130BD150F8042B51F8043B9A4209D196
:100AF000A2EB0C03934313EACC13DBD04FF00000BE
:100B0000704700BFD01A01BAB1FA81F101F01801A3
:100B100022FA01F0CB40C1F12001DBB2C0B2C01A11
:100B20002CFA01F3D11A914311EAC311E6D17047AF
:100B30005FEA400C08BF91F0000F4FEA8C234FEAA8
:100B4000C12243EA51514FEA1C5018BF00F5F04052
:100B50004FEA300018BF41F000415FEA6C5C00F0E2
:100B60002980BCF1FF3F08BF40F080407047130C64
:100B700006BF12044FF0100C4FF0000C130E04BF10
:100B800012020CF1080C130F04BF12010CF1040C3B
:100B9000930F04BF92000CF1020CD30F04BF52005C
:100BA0000CF1010C11464FF00002A0F11F00A0EB68
:100BB0000C00704711F0004F08BF704731F0004142
:100BC0003FF4D5AF0B0C06BF09044FF0100C4FF0EB
:100BD000000C0B0E04BF09020CF1080C0B0F04BF34
:100BE00009010CF1040C8B0F04BF89000CF1020CFD
:100BF000CB0F04BF49000CF1010CCCF12003A0EB9A
:100C00000C0022FA03F302FA0CF241EA030100F1AC
:100C10000100704720F07F4C80EA030023F07F47FB
:100C2000ACEB070303F57C5300F0004003F1FF0336
:100C30002DE980494FEA154B09B44FEA144325EAE0
:100C40000B4E24EA03480FF2042606EB132749084B
:100C50003E785FEA320203FB0667C7F5000707FB31
:100C600006F64FEA54374FEAD64606F1020607FB6E
:100C7000066CCCF1005C4FEA1C472CEA074C07FBE2
:100C800006F40CFB06F504EB15464FEA961634BF46
:100C900000204FF000404FEAD13706FB07FC4FEA37
:100CA0001C4C0CFB0BF7D21B03FB0CF761EB070191
:100CB0000CFB0EF7B0EB074072EB17420CFB08F78A
:100CC00034BFA2EB0742B2EB074261EB17414FEA98
:100CD0000C444FEA910706FB07FC4FEA1C4C0CFB47
:100CE0000BF7B0EBC74072EB573203FB0CF734BF86
:100CF000A2EBC742B2EBC74261EB57310CFB0EF7D8
:100D0000B0EBC70072EB57720CFB08F734BFA2EBD5
:100D1000C702B2EBC70261EB5771039F4FEA8161D3
:100D200041EA921104EBCC044FEAD1374FEA8262D8
:100D300006FB07FC42EA90124FEA80604FEA1C4C27
:100D40000CFB0BF7D21B03FB0CF761EB07010CFB51
:100D50000EF7B0EB074072EB17420CFB08F734BFFD
:100D6000A2EB0742B2EB074261EB17414FEA8C5509
:100D70004FEA910704EB9C2406FB07FC4FEA1C4C4E
:100D80000CFB0BF7B0EBC74072EB573203FB0CF7D1
:100D900034BFA2EBC742B2EBC74261EB57310CFB49
:100DA0000EF7B0EBC70072EB57720CFB08F734BFBD
:100DB000A2EBC702B2EBC70261EB577115EB4C25F2
:100DC0004FEA816141EA92114FEA82624FEAD137DC
:100DD00042EA901206FB07FC44F100044FEA8060EF
:100DE0004FEA1C4C0CFB0BF7D21B03FB0CF761EB1F
:100DF00007010CFB0EF7B0EB074072EB17420CFB40
:100E000008F734BFA2EB0742B2EB074261EB174190
:100E100015EB1C154FEA813141EA92414FEA8232CB
:100E200042EA90424FEA80304FEA0C7644F10004E7
:100E300048EA03434EEA0B484FF0000EB2EB080CB1
:100E400071EB030724BF624639464EEB0E0E4FF09E
:100E5000000B0018524149414BEB0B0BB2EB080C55
:100E600071EB03077BF1000B24BF624639464EEB62
:100E70000E0E4FF0000B0018524149414BEB0B0B8B
:100E8000B2EB080C71EB03077BF1000B24BF624649
:100E900039464EEB0E0E51EA020718BF46F0010626
:100EA00016EB0E7655F1000254F1000103D5BDE8B2
:100EB0008901BDE80088BDE88901BDE80048B61990
:100EC000524141EB0101A3F10103704780807F7E15
:100ED0007D7C7B7A797877767675747372717170B0
:100EE0006F6E6E6D6C6C6B6A6A6968686766666562
:100EF0006464636362616160605F5F5E5E5D5D5CF0
:100F00005C5B5B5A5A595958585757565655555560
:100F10005454535352525251515050504F4F4F4EC0
:100F20004E4D4D4D4C4C4C4B4B4B4A4A4A4949490E
:100F30004848484747474746464645454544444450
:100F4000444343434342424242414141002B9C4679
:100F500030D477002BD01CB54FEA370703B44FF0DD
:100F600010004FF01001BAF1000F06D0BCF1000FD5
:100F7000DCBF40F0080040F008014FF000000FBC5B
:100F8000BDE810400BF1010BBBF1010F08BF5FEA98
:100F9000170722BF12F1010211F101014FF00041C8
:100FA00043F1000300F0004043EA00007047F9D32A
:100FB0005708D0E746EA064613F1400F4FEA1646B7
:100FC0001FDD13F1200FDFBF16430A460021203337
:100FD0005B42BED0C3F1200746EA064602FA07F795
:100FE0004FEA164646EA0706C3F1200722FA03F243
:100FF00001FA07F721FA03F14FF0000342EA070272
:10100000A7E746EA020646EA06464FEA164646EAD9
:101010000106BCBF46EA0646360C4FF000034FF00F
:1010200000024FF0000194E72DE9804C9A46934668
:1010300070B491E8380007C831EA400C48BF34EA80
:10104000430C03D5FFF7E6FDFFF780FFF0BCBDE8DA
:10105000008C2DE9804C9A46934670B491E8380094
:1010600007C810F0804F08BF13F0804F03D100F085
:1010700005F8FFF76BFFF0BCBDE8008C20F07F4760
:1010800080EA030023F07F4C07EB0C03A3F57C53AD
:1010900000F00040A3F1FE0392F0000F00F0B380D7
:1010A00095F0000F00F077802DE901494FEA1140DB
:1010B0004FEA144621EA004800FB06FC24EA0647F2
:1010C00008FB06F607FB08F800FB07F718EB0648D5
:1010D0004CEB164C4FEA124B18EB07484FEA1546FB
:1010E0004CEB174022EA0B4E0BFB06FC25EA0647A9
:1010F0000EFB06F607FB0EFE0BFB07F71EEB064E7C
:101100004CEB164C4FF000061EEB074E4CEB174B0A
:1011100018EB0B0840F1000018EB0E0B58EB000821
:1011200040F100008F1A4FF000013CBFC943661B1D
:1011300014BFB5EB040C00213CBFC943F61B4FEABA
:1011400017444EEA8E0E27EA04454FEA1C4704FB7B
:1011500007622CEA074C05FB07F70CFB05F604FBBE
:101160000CFC16EB074642EB174216EB0C4642EB23
:101170001C421BEB060658EB0202414146EA9E0662
:1011800001D5BDE80189B619524141EB0101A3F136
:101190000103BDE801894FEA14454FEA114724EAEB
:1011A000054621EA074C05FB07F406FB07F70CFB95
:1011B00006F105FB0CFC11EB074144EB17444FEA29
:1011C000124711EB0C4144EB1C4422EA074C05FB8F
:1011D00007F206FB07F70CFB06F605FB0CFC16EB0B
:1011E000074642EB174216EB0C4642EB1C456A18C9
:1011F00054F1000148BF7047B619524141EB01015B
:10120000A3F10103704795F0000F37D04FEA114268
:101210004FEA144721EA024624EA074C02FB07F191
:1012200006FB07F70CFB06F402FB0CFC14EB07446F
:1012300041EB17414FEA154714EB0C4441EB1C41BD
:1012400025EA074C02FB07F506FB07F70CFB06F641
:1012500002FB0CFC16EB074645EB174516EB0C465C
:1012600045EB1C42121951F1000148BF7047B619F5
:10127000524141EB0101A3F1010370474FEA1445CC
:101280004FEA114724EA054621EA074C05FB07F11E
:1012900006FB07F70CFB06F24FF0000605FB0CFC03
:1012A00012EB074241EB174112EB0C4251EB1C4190
:1012B00048BF7047921841EB0101A3F10103704749
:1012C00000BFFEE77047000051B18200A2F1C042AA
:1012D000126842F001038200A2F1C042136009E0EB
:1012E0008200A2F1C0421268034B1A408300A3F1AE
:1012F000C0431A6070470000FEFF0F00D0E90112E2
:101300001143C26811430269114342691143826962
:101310001143C2691143026A1143426A1143826A4E
:101320001143C26A1143026B114302689200A2F199
:10133000C0421160816808290BD101688900A1F1C0
:10134000C041096841F0400201688900A1F1C04133
:101350000A60416B0968426B526841EA0211426BB4
:10136000926841EA0221426B928941EA0241426B52
:10137000128A41EA0251426B127D41EA0261426BDC
:10138000926911430268521C9200A2F1C04211609E
:10139000C16AB1F5804F1BD1816B0968826B5268BD
:1013A00041EA0211826B926841EA0221826B128A41
:1013B00041EA0251826B127D41EA0261826B9269BD
:1013C000114302689200A2F1C042C2F8041107E082
:1013D0006FF0704201688900A1F1C041C1F8042199
:1013E00070472DE9F0410246002500260020002329
:1013F0000024002791F803C00CF00F0591F803C0FA
:101400000CF0100CBCF1000F03D091F802C04CEAB4
:10141000050591F800C0BCF1000F31D01468002020
:101420002BE04FF0010C0CFA00F3B1F800C00CEA0D
:1014300003069E4220D183004FF00F0C0CFA03F7F5
:10144000BC4305FA03FC4CEA040491F803C0BCF168
:10145000280F06D14FF0010C0CFA00FCC2F814C0A2
:101460000AE091F803C0BCF1480F05D14FF0010C20
:101470000CFA00FCC2F810C0401C0828D1D314603C
:10148000B1F800C0BCF1FF0F34DD546800202EE03D
:1014900000F1080C4FF0010808FA0CF3B1F800C095
:1014A0000CEA03069E4221D183004FF00F0C0CFA88
:1014B00003F7BC4305FA03FC4CEA040491F803C0AB
:1014C000BCF1280F05D100F1080C08FA0CF8C2F89D
:1014D000148091F803C0BCF1480F07D100F1080C4B
:1014E0004FF0010808FA0CF8C2F81080401C0828D8
:1014F000CED35460BDE8F0810246002093680B40D3
:101500000BB1012000E0002070474161704701618C
:10151000704700002DE9F0410B48006805F055F8D0
:1015200004460D4604F046FD064622462B4605F0CD
:101530005DF9064A03C2064A064B044903C904F092
:10154000BFFEBDE8F0810000200000202800002040
:101550008FC2F5285C8F104008B50121082004F0E7
:101560001DFA4FF48060ADF8000010208DF80300E4
:1015700003208DF8020069460748FFF732FF4FF459
:101580000060ADF8000004208DF8030069460248B1
:10159000FFF727FF08BD0000000C014070B50024D4
:1015A00000254FF400612548FFF7B1FF4FF480613B
:1015B0002248FFF7AAFF00BF4FF400611F48FFF762
:1015C0009BFF0028F8D1012004F0C0FC002519E0A1
:1015D0004FF480611948FFF79AFF6400012004F07E
:1015E000B5FC4FF480611548FFF78FFF4FF40061A1
:1015F0001248FFF781FF00B1641C012004F0A6FC33
:10160000681CC5B2182DE3DB4FF480610B48FFF76F
:101610007EFF84F40004012004F098FC4FF4806104
:101620000648FFF772FF012004F090FC204605F009
:10163000E7F90646304605F0C3F970BD000C0140DD
:1016400000BFFEE770B504460026174805884088AD
:1016500045431548808846F60401884216D1124851
:101660008079012812D100200F4988712A204881F1
:101670002B2088810021084603F01AFF01200A4927
:1016800088712B2048812A20888103E000210846A8
:1016900003F00EFF04F022F9002602E00348048064
:1016A000761CAE42FAD370BD540000200008006CD6
:1016B00010B50446002C66D16C498871F020088072
:1016C0004FF4A07048800846808849F24131884232
:1016D0000BD06648808846F60401884205D06348EE
:1016E000808845F2103188421AD12C205F49088148
:1016F0002A2048812B2088810846808846F60401EC
:10170000884205D05948808845F21031884206D178
:101710004FF4A070554908804FF4F0704880A1E064
:101720005248808845F21051884210D14FF4305011
:101730004E4908814FF4285048814FF42C5088813D
:101740004FF4F07008804FF4487048808AE04748B2
:10175000808841F6631188420DD12C2043490881CD
:101760002B2048812A2088814FF4F07008804FF4A4
:101770004870488076E022203C490881202048813A
:10178000212088816EE00120384988714FF4A070D3
:101790000880F02048800846808849F2413188421C
:1017A00005D03248808845F21031884207D12C207C
:1017B0002E4908812A2048812B2088813FE02B4830
:1017C000808846F60401884207D12C2027490881E9
:1017D0002B2048812A20888131E02448808845F2E6
:1017E0001051884210D14FF43050204908814FF4F5
:1017F000285048814FF42C5088814FF4487008805D
:101800004FF4F07048801AE01848808841F6631160
:1018100088420DD12C20154908812A2048812B208F
:1018200088814FF4487008804FF4F070488006E0DB
:1018300022200E49088121204881202088810B48E0
:10184000808846F60401884205D00848808845F221
:101850001031884206D14FF4F070044908804FF4EB
:10186000A0704880002003F0ADFC10BD54000020A3
:1018700030B503460C4615465A48808849F2413136
:10188000884205D05748808845F21031884214D1EB
:101890005449488904F01CF8181204F013F8D8B21F
:1018A00004F010F84F49888904F012F8201204F06F
:1018B00009F8E0B204F006F88CE04A48808845F266
:1018C0001051884220D14749488904F001F8181284
:1018D00003F0F8FF43494989491C88B203F0F8FF37
:1018E000D8B203F0EFFF3F49888903F0F1FF2012DF
:1018F00003F0E8FF3B498989491C88B203F0E8FFFF
:10190000E0B203F0DFFF65E03648808841F66311FE
:10191000884228D13348807920B932480088401E57
:10192000C01A83B22F49488903F0D2FF181203F07E
:10193000C9FFD8B203F0C6FF181203F0C3FFD8B234
:1019400003F0C0FF2749888903F0C2FF201203F08B
:10195000B9FFE0B203F0B6FF201203F0B3FFE0B22C
:1019600003F0B0FF36E01F48808846F60401884245
:101970001DD11C488079012804D11A480088401ED6
:10198000C01A83B21749488903F0A2FF181203F066
:1019900099FFD8B203F096FF1249888903F098FFA7
:1019A000201203F08FFFE0B203F08CFF12E00D482D
:1019B0008079012804D10B480088401EC01A83B2E8
:1019C00008494889194603F093FF0649888921464A
:1019D00003F08EFF0348008903490880881C0580B6
:1019E00030BD000054000020FE07006C00B59FB021
:1019F0000121080203F0C2FF01214FF4B47003F08B
:101A0000CDFF4FF48070ADF8780010208DF87B008A
:101A100003208DF87A001EA9FE48FFF7E2FC4CF285
:101A20003370ADF8780018208DF87B0003208DF816
:101A30007A001EA9F848FFF7D4FC4FF68070ADF885
:101A4000780018208DF87B0003208DF87A001EA9FD
:101A5000F248FFF7C6FC41F20100ADF8780018200B
:101A60008DF87B0003208DF87A001EA9E948FFF766
:101A7000B8FC01200890002009900F200A90002057
:101A80000B900C900D900E9001900290032003900B
:101A90000020049005900690079006200F900020EB
:101AA0001090119010201290002013901590149017
:101AB000169017904FF480501890002019904FF412
:101AC00080401A9000201B9008A81C9001A81D902F
:101AD0000FA8FFF713FC01210620FFF7F5FB3220CA
:101AE00004F00EFA002003F037FBCD498880084649
:101AF0008088FF280ADB084680884FF6FF718842FD
:101B000004D0C7488088B0F5134F7CD1D32003F0B0
:101B1000DFFE03F017FBC249888003F013FBC049C6
:101B2000888003F00FFBBE498880084680884FF606
:101B3000FF7101EA0020BA49888003F003FBB8492D
:101B400089880843B64988800846808849F241312F
:101B5000884258D0BF2003F0BBFE03F0F3FAB0492F
:101B6000888003F0EFFAAE49888003F0EBFAAC49C5
:101B7000888003F0E7FAAA498880084680884FF6F3
:101B8000FF7101EA0020A649888003F0DBFAA4492E
:101B900089880843A24988800846808846F604015F
:101BA00088427AD0D42003F093FE03F0CBFA9C490C
:101BB000888003F0C7FA9A49888003F0C3FA9849ED
:101BC0008880084680884FF6FF7101EA002094491A
:101BD000888003F0B7FA9249898808439049888041
:101BE0000846808845F21031884256D04FF45A405A
:101BF00003F06EFE03F0A6FA894988804FF45B403B
:101C000003F066FE00E048E003F09CFA8449888017
:101C1000084680884FF6FF7101EA002080498880DD
:101C20004FF45C4003F054FE03F08CFA7C49898841
:101C300008437B49888008468088B0F5004F02D170
:101C400045F2105088807648808845F210518842CD
:101C500023D0A12003F03CFE03F074FA7049888081
:101C600003F070FA6E498880084680884FF6FF714D
:101C700001EA00206A49888003F064FA684989888B
:101C80000843674988800846808845F26171884228
:101C900003D141F66310624988806148808849F227
:101CA000413188427ED1CF2003F012FE002003F0A4
:101CB00009FEC12003F006FE302003F003FEED20F4
:101CC00003F006FE642003F0FDFD032003F0FAFD9F
:101CD000122003F0F7FD812003F0F4FDE82003F06B
:101CE000F7FD852003F0EEFD102003F0EBFD7A20D8
:101CF00003F0E8FDCB2003F0EBFD392003F0E2FD1B
:101D00002C2003F0DFFD002003F0DCFD342003F085
:101D1000D9FD022003F0D6FDF72003F0D9FD2020E5
:101D200003F0D0FDEA2003F0D3FD002003F0CAFD4C
:101D3000002003F0C7FDC02003F0CAFD1B2003F004
:101D4000C1FDC12003F0C4FD012003F0BBFDC5208F
:101D500003F0BEFD302003F0B5FD302003F0B2FDEE
:101D6000C72003F0B5FDB72003F0ACFD362003F02B
:101D7000AFFD482003F0A6FD3A2003F0A9FD552051
:101D800003F0A0FDB12003F0A3FD002003F09AFDB5
:101D90001A2003F097FDB62003F09AFD0A2003F005
:101DA00091FD00E0A0E0A22003F08CFDF22003F002
:101DB0008FFD002003F086FD262003F089FD012021
:101DC00003F080FDE02003F083FD0F2003F07AFD97
:101DD0002A2003F077FD282003F074FD082003F08B
:101DE00071FD0E2003F06EFD082003F06BFD542002
:101DF00003F068FDA92003F065FD432003F062FDB8
:101E00000A2003F05FFD0F2003F05CFD002003F0CB
:101E100059FD07E000200140001401400018014076
:101E200054000020002003F04DFD002003F04AFD87
:101E3000002003F047FDE12003F04AFD002003F0FD
:101E400041FD152003F03EFD172003F03BFD072068
:101E500003F038FD112003F035FD062003F032FDBC
:101E60002B2003F02FFD562003F02CFD3C2003F027
:101E700029FD052003F026FD102003F023FD0F208F
:101E800003F020FD3F2003F01DFD3F2003F01AFD6D
:101E90000F2003F017FD2B2003F01AFD002003F0A4
:101EA00011FD002003F00EFD012003F00BFD3F208B
:101EB00003F008FD2A2003F00BFD002003F002FDD3
:101EC000002003F0FFFC002003F0FCFCEF2003F0F7
:101ED000F9FC112003F0FCFC782004F011F8292013
:101EE00003F0F6FC03F01DB9FE48808846F60401B5
:101EF00088427CD1112003F0EBFC142004F000F8A0
:101F0000D02003F0E5FC072003F0DCFC422003F0C6
:101F1000D9FC1D2003F0D6FCD12003F0D9FC002011
:101F200003F0D0FC1A2003F0CDFC092003F0CAFC1A
:101F3000D22003F0CDFC012003F0C4FC222003F0EA
:101F4000C1FCC02003F0C4FC102003F0BBFC3B200C
:101F500003F0B8FC002003F0B5FC022003F0B2FC53
:101F6000112003F0AFFCC52003F0B2FC032003F006
:101F7000A9FCC82003F0ACFC002003F0A3FC252042
:101F800003F0A0FC212003F09DFC052003F09AFC47
:101F9000002003F097FC0A2003F094FC652003F076
:101FA00091FC252003F08EFC772003F08BFC502061
:101FB00003F088FC0F2003F085FC002003F082FC76
:101FC000F82003F085FC012003F07CFCFE2003F0E8
:101FD0007FFC002003F076FC022003F073FC20203D
:101FE00003F076FC362003F073FC082000E02CE0C0
:101FF00003F068FC3A2003F06BFC552003F062FC10
:102000002B2003F065FC002003F05CFC002003F0B3
:1020100059FC012003F056FC3F2003F053FC2A201A
:1020200003F056FC002003F04DFC002003F04AFCB6
:10203000012003F047FCDF2003F044FC782003F08C
:102040005FFF292003F044FC4CE7A648808845F256
:102050001031884240F07C87ED2003F039FC0120EC
:1020600003F030FCFE2003F02DFCEE2003F030FCEA
:10207000DE2003F027FC212003F024FCF12003F0F4
:1020800027FC012003F01EFCDF2003F021FC1020C0
:1020900003F018FCC42003F01BFC8F2003F012FC9B
:1020A000C62003F015FC002003F00CFCE22003F036
:1020B00009FCE22003F006FCE22003F003FCBF2051
:1020C00003F006FCAA2003F0FDFBB02003F000FCA7
:1020D0000D2003F0F7FB002003F0F4FB0D2003F0CC
:1020E000F1FB002003F0EEFB112003F0EBFB0020DE
:1020F00003F0E8FB192003F0E5FB002003F0E2FB0E
:10210000212003F0DFFB002003F0DCFB2D2003F097
:10211000D9FB002003F0D6FB3D2003F0D3FB0020C9
:1021200003F0D0FB5D2003F0CDFB002003F0CAFBE1
:102130005D2003F0C7FB002003F0C4FBB12003F0D7
:10214000C7FB802003F0BEFB002003F0BBFB8B200D
:1021500003F0B8FB002003F0B5FB962003F0B2FBC0
:10216000002003F0AFFBB22003F0B2FB002003F02D
:10217000A9FB002003F0A6FB022003F0A3FB002034
:1021800003F0A0FB032003F09DFB002003F09AFB6B
:10219000B32003F09DFB002003F094FB002003F02C
:1021A00091FB002003F08EFB002003F08BFB00204E
:1021B00003F088FB002003F085FB002003F082FB86
:1021C000002003F07FFB002003F07CFB002003F0E5
:1021D00079FB002003F076FB002003F073FB002066
:1021E00003F070FB002003F06DFB002003F06AFB9E
:1021F000002003F067FB002003F064FB002003F0E5
:1022000061FB002003F05EFB002003F05BFB00207D
:1022100003F058FB002003F055FB002003F052FBB5
:10222000002003F04FFBB42003F052FB8B2003F09F
:1022300049FB002003F046FB962003F043FB0020FF
:1022400003F040FBA12003F03DFB002003F03AFB2C
:10225000B52003F03DFB022003F034FB002003F027
:1022600031FB032003F02EFB002003F02BFB0420A6
:1022700003F028FB002003F025FBB62003F028FB29
:10228000002003F01FFB002003F01CFBB72003F02D
:102290001FFB002003F016FB002003F013FB3F2080
:1022A00003F010FB002003F00DFB5E2003F00AFB9F
:1022B000002003F007FB642003F004FB002003F080
:1022C00001FB8C2003F0FEFA002003F0FBFAAC20A7
:1022D00003F0F8FA002003F0F5FADC2003F0F2FA3C
:1022E000002001E05400002003F0ECFA702003F01D
:1022F000E9FA002003F0E6FA902003F0E3FA002068
:1023000003F0E0FAEB2003F0DDFA002003F0DAFA44
:10231000DC2003F0D7FA002003F0D4FAB82003F051
:10232000D7FA002003F0CEFA002003F0CBFA002009
:1023300003F0C8FA002003F0C5FA002003F0C2FA47
:10234000002003F0BFFA002003F0BCFA002003F0E5
:10235000B9FABA2003F0BCFA242003F0B3FA002043
:1023600003F0B0FA002003F0ADFA002003F0AAFA5F
:10237000C12003F0ADFA202003F0A4FA002003F0FE
:10238000A1FA542003F09EFA002003F09BFAFF20EC
:1023900003F098FA002003F095FAC22003F098FAAF
:1023A0000A2003F08FFA002003F08CFA042003F0D7
:1023B00089FA002003F086FAC32003F089FA3C2052
:1023C00003F080FA002003F07DFA3A2003F07AFA55
:1023D000002003F077FA392003F074FA002003F0AC
:1023E00071FA372003F06EFA002003F06BFA3C20FC
:1023F00003F068FA002003F065FA362003F062FA71
:10240000002003F05FFA322003F05CFA002003F0B2
:1024100059FA2F2003F056FA002003F053FA2C202B
:1024200003F050FA002003F04DFA292003F04AFA95
:10243000002003F047FA262003F044FA002003F0BE
:1024400041FA242003F03EFA002003F03BFA242056
:1024500003F038FA002003F035FA232003F032FAB3
:10246000002003F02FFA3C2003F02CFA002003F0A8
:1024700029FA362003F026FA002003F023FA32204E
:1024800003F020FA002003F01DFA2F2003F01AFABF
:10249000002003F017FA2C2003F014FA002003F0B8
:1024A00011FA292003F00EFA002003F00BFA26207F
:1024B00003F008FA002003F005FA242003F002FAE2
:1024C000002003F0FFF9242003F0FCF9002003F0C2
:1024D000F9F9232003F0F6F9002003F0F3F9C42002
:1024E00003F0F6F9622003F0EDF9002003F0EAF9B9
:1024F000052003F0E7F9002003F0E4F9842003F05D
:10250000E1F9002003F0DEF9F02003F0DBF9002010
:1025100003F0D8F9182003F0D5F9002003F0D2F920
:10252000A42003F0CFF9002003F0CCF9182003F029
:10253000C9F9002003F0C6F9502003F0C3F90020C8
:1025400003F0C0F90C2003F0BDF9002003F0BAF944
:10255000172003F0B7F9002003F0B4F9952003F039
:10256000B1F9002003F0AEF9F32003F0ABF900203D
:1025700003F0A8F9E62003F0A5F9002003F0A2F982
:10258000C52003F0A5F9322003F09CF9002003F0E8
:1025900099F9442003F096F9002003F093F965209F
:1025A00003F090F9002003F08DF9762003F08AF90A
:1025B000002003F087F9882003F084F9002003F05D
:1025C00081F9C62003F084F9202003F07BF9002074
:1025D00003F078F9172003F075F9002003F072F981
:1025E000012003F06FF9002003F06CF9C72003F01D
:1025F0006FF9002003F066F9002003F063F9002072
:1026000003F060F9002003F05DF9C82003F060F9E1
:10261000002003F057F9002003F054F9002003F0E4
:1026200051F9002003F04EF9C92003F051F90020C0
:1026300003F048F9002003F045F9002003F042F9C7
:10264000002003F03FF9002003F03CF9002003F0E4
:1026500039F9002003F036F9002003F033F90020A7
:1026600003F030F9002003F02DF9002003F02AF9DF
:10267000002003F027F9002003F024F9002003F0E4
:1026800021F9002003F01EF9002003F01BF9E020DF
:1026900003F01EF9162003F015F9002003F012F9DB
:1026A0001C2003F00FF9002003F00CF9212003F0A7
:1026B00009F9002003F006F9362003F003F90020A1
:1026C00003F000F9462003F0FDF8002003F0FAF8CB
:1026D000522003F0F7F8002003F0F4F8642003F030
:1026E000F1F8002003F0EEF87A2003F0EBF8002078
:1026F00003F0E8F88B2003F0E5F8002003F0E2F89F
:10270000992003F0DFF8002003F0DCF8A82003F0A4
:10271000D9F8002003F0D6F8B92003F0D3F8002050
:1027200003F0D0F8C42003F0CDF8002003F0CAF87D
:10273000CA2003F0C7F8002003F0C4F8D22003F049
:10274000C1F8002003F0BEF8D92003F0BBF8002048
:1027500003F0B8F8E02003F0B5F8002003F0B2F879
:10276000F32003F0AFF8002003F0ACF8E12003F011
:10277000AFF8162003F0A6F8002003F0A3F81C2001
:1027800003F0A0F8002003F09DF8222003F09AF84F
:10279000002003F097F8362003F094F8002003F0AF
:1027A00091F8452003F08EF8002003F08BF85220BA
:1027B00003F088F8002003F085F8642003F082F825
:1027C000002003F07FF87A2003F07CF8002003F06B
:1027D00079F88B2003F076F8002003F073F8992045
:1027E00003F070F8002003F06DF8A82003F06AF8F9
:1027F000002003F067F8B92003F064F8002003F02C
:1028000061F8C42003F05EF8002003F05BF8CA20F2
:1028100003F058F8002003F055F8D22003F052F8E6
:10282000002003F04FF8D82003F04CF8002003F00C
:1028300049F8E02003F046F8002003F043F8F320C5
:1028400003F040F8002003F03DF8E22003F040F8E8
:10285000052003F037F8002003F034F80B2003F0D4
:1028600031F8002003F02EF81B2003F02BF8002095
:1028700003F028F8342003F025F8002003F022F8B4
:10288000442003F01FF8002003F01CF84F2003F051
:1028900019F8002003F016F8612003F013F8002067
:1028A00003F010F8792003F00DF8002003F00AF887
:1028B000882003F007F8002003F004F8972003F0C5
:1028C00001F8002002F0FEFFA62002F0FBFF00202E
:1028D00002F0F8FFB72002F0F5FF002002F0F2FF4F
:1028E000C22002F0EFFF002002F0ECFFC72002F050
:1028F000E9FF002002F0E6FFD12002F0E3FF002014
:1029000002F0E0FFD62002F0DDFF002002F0DAFF47
:10291000DD2002F0D7FF002002F0D4FFF32002F008
:10292000D1FF002002F0CEFFE32002F0D1FF05200E
:1029300002F0C8FF002002F0C5FF0A2002F0C2FF2B
:10294000002002F0BFFF1C2002F0BCFF002002F0BC
:10295000B9FF332002F0B6FF002002F0B3FF44209D
:1029600002F0B0FF002002F0ADFF502002F0AAFFFD
:10297000002002F0A7FF622002F0A4FF002002F076
:10298000A1FF782002F09EFF002002F09BFF88202C
:1029900002F098FF002002F095FF972002F092FFCE
:1029A000002002F08FFFA62002F08CFF002002F032
:1029B00089FFB72002F086FF002002F083FFC220CB
:1029C00002F080FF002002F07DFFC72002F07AFFB6
:1029D000002002F077FFD12002F074FF002002F007
:1029E00071FFD52002F06EFF002002F06BFFDD20AA
:1029F00002F068FF002002F065FFF32002F062FFA2
:102A0000002002F05FFFE42002F062FF012002F0EC
:102A100059FF002002F056FF012002F053FF002072
:102A200002F050FF022002F04DFF002002F04AFFAA
:102A30002A2002F047FF002002F044FF3C2002F071
:102A400041FF002002F03EFF4B2002F03BFF002040
:102A500002F038FF5D2002F035FF002002F032FF67
:102A6000742002F02FFF002002F02CFF842002F0DF
:102A700029FF002002F026FF932002F023FF002010
:102A800002F020FFA22002F01DFF002002F01AFF3A
:102A9000B32002F017FF002002F014FFBE2002F066
:102AA00011FF002002F00EFFC42002F00BFF0020F7
:102AB00002F008FFCD2002F005FF002002F002FF27
:102AC000D32002F0FFFE002002F0FCFEDD2002F029
:102AD000F9FE002002F0F6FEF32002F0F3FE0020E3
:102AE00002F0F0FEE52002F0F3FE002002F0EAFE24
:102AF000002002F0E7FE002002F0E4FE002002F0D9
:102B0000E1FE022002F0DEFE002002F0DBFE2920C2
:102B100002F0D8FE002002F0D5FE3C2002F0D2FEEA
:102B2000002002F0CFFE4B2002F0CCFE002002F08D
:102B3000C9FE5D2002F0C6FE002002F0C3FE742034
:102B400002F0C0FE002002F0BDFE842002F0BAFEBA
:102B5000002002F0B7FE932002F0B4FE002002F045
:102B6000B1FEA22002F0AEFE002002F0ABFEB320C8
:102B700002F0A8FE002002F0A5FEBE2002F0A2FE98
:102B8000002002F09FFEC42002F09CFE002002F014
:102B900099FECD2002F096FE002002F093FED32095
:102BA00002F090FE002002F08DFEDC2002F08AFE92
:102BB000002002F087FEF32002F084FE002002F0E5
:102BC00081FEE62002F084FE112002F07BFE002050
:102BD00002F078FE342002F075FE002002F072FE52
:102BE000562002F06FFE002002F06CFE762002F00C
:102BF00069FE002002F066FE772002F063FE0020EE
:102C000002F060FE662002F05DFE002002F05AFE37
:102C1000882002F057FE002002F054FE992002F0B6
:102C200051FE002002F04EFEBB2002F04BFE0020C1
:102C300002F048FE992002F045FE002002F042FE1C
:102C4000662002F03FFE002002F03CFE552002F01C
:102C500039FE002002F036FE552002F033FE00203F
:102C600002F030FE452002F02DFE002002F02AFE88
:102C7000432002F027FE002002F024FE442002F050
:102C800021FE002002F01EFEE72002F021FE32208D
:102C900002F018FE002002F015FE552002F012FE90
:102CA000002002F00FFE762002F00CFE002002F061
:102CB00009FE662002F006FE002002F003FE6720F7
:102CC00002F000FE002002F0FDFD672002F0FAFD98
:102CD000002002F0F7FD872002F0F4FD002002F052
:102CE000F1FD992002F0EEFD002002F0EBFDBB208B
:102CF00002F0E8FD002002F0E5FD992002F0E2FD7F
:102D0000002002F0DFFD772002F0DCFD002002F061
:102D1000D9FD442002F0D6FD002002F0D3FD56205C
:102D200002F0D0FD002002F0CDFD232002F0CAFD0C
:102D3000002002F0C7FD332002F0C4FD002002F0A5
:102D4000C1FD452002F0BEFD002002F0BBFDE820E1
:102D500002F0BEFD002002F0B5FD002002F0B2FD41
:102D6000992002F0AFFD002002F0ACFD872002F0B8
:102D7000A9FD002002F0A6FD882002F0A3FD00209E
:102D800002F0A0FD772002F09DFD002002F09AFDE8
:102D9000662002F097FD002002F094FD882002F0EA
:102DA00091FD002002F08EFDAA2002F08BFD002094
:102DB00002F088FDBB2002F085FD002002F082FDBC
:102DC000992002F07FFD002002F07CFD662002F0D9
:102DD00079FD002002F076FD552002F073FD002001
:102DE00002F070FD552002F06DFD002002F06AFD3A
:102DF000442002F067FD002002F064FD442002F050
:102E000061FD002002F05EFD552002F05BFD002018
:102E100002F058FDE92002F05BFDAA2002F052FD0D
:102E2000002002F04FFD002002F04CFD002002F0D7
:102E300049FD002002F04CFDAA2002F043FDCF2006
:102E400002F046FD002002F03DFD002002F03AFDB8
:102E5000002002F037FD002002F034FD002002F0D7
:102E600031FD002002F02EFD002002F02BFD00209D
:102E700002F028FD002002F025FD002002F022FDD6
:102E8000002002F01FFD002002F01CFD002002F0D7
:102E900019FD002002F016FD002002F013FD0020B5
:102EA00002F010FD002002F00DFDF02002F010FDF8
:102EB000002002F007FD502002F004FD002002F087
:102EC00001FD002002F0FEFC002002F0FBFCF320DC
:102ED00002F0FEFC002002F0F5FCF92002F0F8FC04
:102EE000062002F0EFFC102002F0ECFC292002F09A
:102EF000E9FC002002F0E6FC3A2002F0E9FC552053
:102F000002F0E0FC112002F0E3FC642002F0F8FF84
:102F1000292002F0DDFC352002F0DAFC002002F06E
:102F2000D1FC512002F0D4FCFF2002F0CBFC532056
:102F300002F0CEFC2C2002F0C5FC552002F0C8FCAB
:102F4000822002F0BFFC2C2002F0C2FC02F0E9B8A3
:102F5000FE48808845F2105188427DD155214FF4BA
:102F6000704002F0C5FCAA214FF2010002F0C0FC43
:102F700052214FF2020002F0BBFC08214FF2030085
:102F800002F0B6FC01214FF2040002F0B1FC0D2169
:102F90004FF4304002F0ACFC0D214BF2010002F086
:102FA000A7FC0D214BF2020002F0A2FC34214FF4E9
:102FB000364002F09DFC34214BF2016002F098FC97
:102FC00034214BF2026002F093FC0D214FF43140AA
:102FD00002F08EFC0D214BF2011002F089FC0D2154
:102FE0004BF2021002F084FC34214FF4374002F01F
:102FF0007FFC34214BF2017002F07AFC34214BF259
:10300000027002F075FC00214FF4324002F070FCB7
:1030100000214BF2012002F06BFC00214BF2022058
:1030200002F066FC24214FF4384002F061FC2421B8
:103030004BF6010002F05CFC24214BF6020002F08A
:1030400057FC01214FF43F4002F052FC0F214FF496
:10305000334002F04DFC00E0FDE30F214BF2013064
:1030600002F046FC0F214BF2023002F041FC342109
:103070004FF4394002F03CFC34214BF6011002F0D1
:1030800037FC34214BF6021002F032FC08214FF4D9
:10309000354002F02DFC08214BF2015002F028FCD3
:1030A00008214BF2025002F023FC03214FF442406E
:1030B00002F01EFC24214FF43A4002F019FC2421B6
:1030C0004BF6012002F014FC24214BF6022002F002
:1030D0000FFC00214FF43C4002F00AFC78214BF633
:1030E000014002F005FC00214BF6024002F000FC1A
:1030F00000214FF43D4002F0FBFB78214BF60150DC
:1031000002F0F6FB00214BF6025002F0F1FB002129
:103110004FF43E4002F0ECFB64214BF6016002F0FC
:10312000E7FB00214FF4514002F0E2FB33214DF266
:10313000011002F0DDFB00214DF2021002F0D8FB7D
:1031400034214DF2031002F0D3FB00214DF20410A4
:1031500002F0CEFB3A214DF2051002F0C9FB00212E
:103160004DF2061002F0C4FB4A214DF2071002F0A6
:10317000BFFB00214DF2081002F0BAFB5C214DF2BA
:10318000091002F0B5FB00214DF20A1002F0B0FB6D
:1031900081214DF20B1002F0ABFB00214DF20C101F
:1031A00002F0A6FBA6214DF20D1002F0A1FB0021BA
:1031B0004DF20E1002F09CFBE5214DF20F1002F0D3
:1031C00097FB01214DF2101002F092FB13214DF2FA
:1031D000111002F08DFB01214DF2121002F088FB5C
:1031E00054214DF2131002F083FB01214DF2141013
:1031F00002F07EFB82214DF2151002F079FB0121D5
:103200004DF2161002F074FBCA214DF2171002F0B5
:103210006FFB02214DF2181002F06AFB00214DF203
:10322000191002F065FB02214DF21A1002F060FB4A
:1032300001214DF21B1002F05BFB02214DF21C102C
:1032400002F056FB34214DF21D1002F051FB022119
:103250004DF21E1002F04CFB67214DF21F1002F0E0
:1032600047FB02214DF2201002F042FB84214DF277
:10327000211002F03DFB02214DF2221002F038FB3A
:10328000A4214DF2231002F033FB02214DF2241051
:1032900002F02EFBB7214DF2251002F029FB02218E
:1032A0004DF2261002F024FBCF214DF2271002F040
:1032B0001FFB02214DF2281002F01AFBDE214DF215
:1032C000291002F015FB02214DF22A1002F010FB2A
:1032D000F2214DF22B1002F00BFB02214DF22C10CB
:1032E00002F006FBFE214DF22D1002F001FB03213E
:1032F0004DF22E1002F0FCFA10214DF22F1002F0C8
:10330000F7FA03214DF2301002F0F2FA33214DF2B8
:10331000311002F0EDFA03214DF2321002F0E8FA1A
:103320006D214DF2331002F0E3FA00214FF45240C8
:1033300002F0DEFA33214DF2012002F0D9FA002129
:103340004DF2022002F0D4FA342101E054000020B2
:103350004DF2032002F0CCFA00214DF2042002F0DD
:10336000C7FA3A214DF2052002F0C2FA00214DF2CF
:10337000062002F0BDFA4A214DF2072002F0B8FA09
:1033800000214DF2082002F0B3FA5C214DF2092031
:1033900002F0AEFA00214DF20A2002F0A9FA8121D2
:1033A0004DF20B2002F0A4FA00214DF20C2002F0A5
:1033B0009FFAA6214DF20D2002F09AFA00214DF25B
:1033C0000E2002F095FAE5214DF20F2002F090FA5E
:1033D00001214DF2102002F08BFA13214DF2112041
:1033E00002F086FA01214DF2122002F081FA5421F6
:1033F0004DF2132002F07CFA01214DF2142002F06C
:1034000077FA82214DF2152002F072FA01214DF275
:10341000162002F06DFACA214DF2172002F068FA68
:1034200002214DF2182002F063FA00214DF219201A
:1034300002F05EFA02214DF21A2002F059FA01213F
:103440004DF21B2002F054FA02214DF21C2002F032
:103450004FFA34214DF21D2002F04AFA02214DF2BA
:103460001E2002F045FA67214DF21F2002F040FABB
:1034700002214DF2202002F03BFA84214DF221205E
:1034800002F036FA02214DF2222002F031FAA42194
:103490004DF2232002F02CFA02214DF2242002F0FA
:1034A00027FAB7214DF2252002F022FA02214DF22F
:1034B000262002F01DFACF214DF2272002F018FA43
:1034C00002214DF2282002F013FADE214DF22920CC
:1034D00002F00EFA02214DF22A2002F009FAF2213E
:1034E0004DF22B2002F004FA02214DF22C2002F0C2
:1034F000FFF9FE214DF22D2002F0FAF903214DF2E1
:103500002E2002F0F5F910214DF22F2002F0F0F9F3
:1035100003214DF2302002F0EBF933214DF231203E
:1035200002F0E6F903214DF2322002F0E1F96D21BB
:103530004DF2332002F0DCF900214FF4534002F049
:10354000D7F933214DF2013002F0D2F900214DF2CA
:10355000023002F0CDF934214DF2033002F0C8F907
:1035600000214DF2043002F0C3F93A214DF205304A
:1035700002F0BEF900214DF2063002F0B9F94A21FD
:103580004DF2073002F0B4F900214DF2083002F09C
:10359000AFF95C214DF2093002F0AAF900214DF299
:1035A0000A3002F0A5F981214DF20B3002F0A0F9AA
:1035B00000214DF20C3002F09BF9A6214DF20D30A6
:1035C00002F096F900214DF20E3002F091F9E5215A
:1035D0004DF20F3002F08CF901214DF2103002F063
:1035E00087F913214DF2113002F082F901214DF2D9
:1035F000123002F07DF954214DF2133002F078F9C7
:1036000001214DF2143002F073F982214DF2153090
:1036100002F06EF901214DF2163002F069F9CA216B
:103620004DF2173002F064F902214DF2183002F029
:103630005FF900214DF2193002F05AF902214DF2E2
:103640001A3002F055F901214DF21B3002F050F909
:1036500002214DF21C3002F04BF934214DF21D30A5
:1036600002F046F902214DF21E3002F041F96721C5
:103670004DF21F3002F03CF902214DF2203002F0F1
:1036800037F984214DF2213002F032F902214DF256
:10369000223002F02DF9A4214DF2233002F028F956
:1036A00002214DF2243002F023F9B7214DF22530EA
:1036B00002F01EF902214DF2263002F019F9CF2155
:1036C0004DF2273002F014F902214DF2283002F0B9
:1036D0000FF9DE214DF2293002F00AF902214DF2F4
:1036E0002A3002F005F9F2214DF22B3002F000F9F8
:1036F00002214DF22C3002F0FBF8FE214DF22D306C
:1037000002F0F6F803214DF22E3002F0F1F810210C
:103710004DF22F3002F0ECF803214DF2303002F080
:10372000E7F833214DF2313002F0E2F803214DF297
:10373000323002F0DDF86D214DF2333002F0D8F86E
:1037400000214FF4544002F0D3F833214DF20140F0
:1037500002F0CEF800214DF2024002F0C9F8342107
:103760004DF2034002F0C4F800214DF2044002F093
:10377000BFF83A214DF2054002F0BAF800214DF2AF
:10378000064002F0B5F84A214DF2074002F0B0F8C9
:1037900000214DF2084002F0ABF85C214DF20940E7
:1037A00002F0A6F800214DF20A4002F0A1F88121B2
:1037B0004DF20B4002F09CF800214DF20C4002F05B
:1037C00097F8A6214DF20D4002F092F800214DF23B
:1037D0000E4002F08DF8E5214DF20F4002F088F81E
:1037E00001214DF2104002F083F813214DF21140F7
:1037F00002F07EF801214DF2124002F079F85421D6
:103800004DF2134002F074F801214DF2144002F021
:103810006FF882214DF2154002F06AF801214DF255
:10382000164002F065F8CA214DF2174002F060F828
:1038300002214DF2184002F05BF800214DF21940D0
:1038400002F056F802214DF21A4002F051F801211F
:103850004DF21B4000E006E302F04AF802214DF26F
:103860001C4002F045F834214DF21D4002F040F8B2
:1038700002214DF21E4002F03BF867214DF21F403D
:1038800002F036F802214DF2204002F031F8842196
:103890004DF2214002F02CF802214DF2224002F0BC
:1038A00027F8A4214DF2234002F022F802214DF224
:1038B000244002F01DF8B7214DF2254002F018F81F
:1038C00002214DF2264002F013F8CF214DF227409D
:1038D00002F00EF802214DF2284002F009F8DE2134
:1038E0004DF2294002F004F802214DF22A4001F085
:1038F000FFFFF2214DF22B4001F0FAFF02214DF2C1
:103900002C4001F0F5FFFE214DF22D4001F0F0FFBB
:1039100003214DF22E4001F0EBFF10214DF22F401C
:1039200001F0E6FF03214DF2304001F0E1FF3321C9
:103930004DF2314001F0DCFF03214DF2324001F045
:10394000D7FF6D214DF2334001F0D2FF00214FF43B
:10395000554001F0CDFF33214DF2015001F0C8FF79
:1039600000214DF2025001F0C3FF34214DF203500B
:1039700001F0BEFF00214DF2045001F0B9FF3A21E1
:103980004DF2055001F0B4FF00214DF2065001F058
:10399000AFFF4A214DF2075001F0AAFF00214DF27E
:1039A000085001F0A5FF5C214DF2095001F0A0FF85
:1039B00000214DF20A5001F09BFF81214DF20B5086
:1039C00001F096FF00214DF20C5001F091FFA6216D
:1039D0004DF20D5001F08CFF00214DF20E5001F020
:1039E00087FFE5214DF20F5001F082FF01214DF2DA
:1039F000105001F07DFF13214DF2115001F078FFBE
:103A000001214DF2125001F073FF54214DF2135079
:103A100001F06EFF01214DF2145001F069FF822187
:103A20004DF2155001F064FF01214DF2165001F0E6
:103A30005FFFCA214DF2175001F05AFF02214DF2EB
:103A4000185001F055FF00214DF2195001F050FFC0
:103A500002214DF21A5001F04BFF01214DF21B5093
:103A600001F046FF02214DF21C5001F041FF3421CC
:103A70004DF21D5001F03CFF02214DF21E5001F0AD
:103A800037FF67214DF21F5001F032FF02214DF246
:103A9000205001F02DFF84214DF2215001F028FF2C
:103AA00002214DF2225001F023FFA4214DF22350B8
:103AB00001F01EFF02214DF2245001F019FFB72141
:103AC0004DF2255001F014FF02214DF2265001F075
:103AD0000FFFCF214DF2275001F00AFF02214DF2D6
:103AE000285001F005FFDE214DF2295001F000FFC2
:103AF00002214DF22A5001F0FBFEF2214DF22B5033
:103B000001F0F6FE02214DF22C5001F0F1FEFE21F3
:103B10004DF22D5001F0ECFE03214DF22E5001F03C
:103B2000E7FE10214DF22F5001F0E2FE03214DF28D
:103B3000305001F0DDFE33214DF2315001F0D8FE5E
:103B400003214DF2325001F0D3FE6D214DF233507E
:103B500001F0CEFE00214FF4564001F0C9FE3321A2
:103B60004DF2016001F0C4FE00214DF2026001F04F
:103B7000BFFE34214DF2036001F0BAFE00214DF288
:103B8000046001F0B5FE3A214DF2056001F0B0FE8F
:103B900000214DF2066001F0ABFE4A214DF20760B4
:103BA00001F0A6FE00214DF2086001F0A1FE5C21AB
:103BB0004DF2096001F09CFE00214DF20A6001F017
:103BC00097FE81214DF20B6001F092FE00214DF233
:103BD0000C6001F08DFEA6214DF20D6001F088FE13
:103BE00000214DF20E6001F083FEE5214DF20F60E1
:103BF00001F07EFE01214DF2106001F079FE1321EB
:103C00004DF2116001F074FE01214DF2126001F0DD
:103C10006FFE54214DF2136001F06AFE01214DF256
:103C2000146001F065FE82214DF2156001F060FE26
:103C300001214DF2166001F05BFECA214DF21760C2
:103C400001F056FE02214DF2186001F051FE0021F4
:103C50004DF2196001F04CFE02214DF21A6001F0A4
:103C600047FE01214DF21B6001F042FE02214DF2A0
:103C70001C6001F03DFE34214DF21D6001F038FE64
:103C800002214DF21E6001F033FE67214DF21F60EC
:103C900001F02EFE02214DF2206001F029FE842168
:103CA0004DF2216001F024FE02214DF2226001F06C
:103CB0001FFEA4214DF2236001F01AFE02214DF2F5
:103CC000246001F015FEB7214DF2256001F010FED1
:103CD00002214DF2266001F00BFECF214DF227604C
:103CE00001F006FE02214DF2286001F001FEDE2106
:103CF0004DF2296001F0FCFD02214DF22A6001F035
:103D0000F7FDF2214DF22B6001F0F2FD02214DF2A0
:103D10002C6001F0EDFDFE214DF22D6001F0E8FD7B
:103D200003214DF22E6001F0E3FD10214DF22F60D2
:103D300001F0DEFD03214DF2306001F0D9FD3321A9
:103D40004DF2316001F0D4FD03214DF2326001F0FB
:103D5000CFFD6D214DF2336001F0CAFD55214FF4C6
:103D6000704001F0C5FDAA214FF2010001F0C0FD35
:103D700052214FF2020001F0BBFD08214FF2030077
:103D800001F0B6FD00214FF2040001F0B1FDCC219D
:103D90004FF4314001F0ACFD00214BF2011001F075
:103DA000A7FD05214FF4364001F0A2FD70214FF42C
:103DB000374001F09DFD70214BF2017001F098FD3C
:103DC00001214FF4384001F093FD03214BF601002F
:103DD00001F08EFD03214BF6020001F089FD032165
:103DE0004BF6030001F084FD02214FF43C4001F04A
:103DF0007FFD00214BF6014001F07AFD00214BF6DA
:103E0000024001F075FDD0214FF4494001F070FDF2
:103E100002214CF6011001F06BFD50214CF602100E
:103E200001F066FD50214CF6031001F061FD5021B8
:103E30004CF6041001F05CFD00214FF4545001F0E9
:103E400057FD55214FF4685001F052FD4FF4885052
:103E500001F03EFD782002F079F84FF4245001F093
:103E600037FD01F05EB9FE48808849F2253188426D
:103E70007ED147F6F001E52001F03AFD4FF4807164
:103E8000012001F035FD4FF4E061022001F030FD2A
:103E900041F23001032001F02BFD0021042001F04C
:103EA00027FD40F20221082001F022FD0021092017
:103EB00001F01EFD00210A2001F01AFD00210C2056
:103EC00001F016FD00210D2001F012FD00210F2050
:103ED00001F00EFD0021102001F00AFD0721112044
:103EE00001F006FD0021122001F002FD0021132047
:103EF00001F0FEFC0021072001F0FAFC41F2906184
:103F0000102001F0F5FC40F22721112001F0F0FC17
:103F10009D21122001F0ECFC4FF4C851132001F058
:103F2000E7FC2521292001F0E3FC0D212B2001F0E5
:103F3000DFFC0721302001F0DBFC40F203313120AF
:103F400001F0D6FC0321322001F0D2FC40F2062120
:103F5000352001F0CDFC0821362001F0C9FC40F2EB
:103F60000641372001F0C4FC4FF44171382000E0D5
:103F700057E001F0BDFC0721392001F0B9FC40F207
:103F800002613C2001F0B4FC08213D2001F0B0FCAE
:103F90000021502001F0ACFCEF21512001F0A8FCE1
:103FA0000021522001F0A4FC40F23F11532001F007
:103FB0009FFC4FF42741602001F09AFC0121612011
:103FC00001F096FC00216A2001F092FC0021802083
:103FD00001F08EFC0021812001F08AFC002182206A
:103FE00001F086FC0021832001F082FC0021842066
:103FF00001F07EFC0021852001F07AFC1021902048
:1040000001F076FC4FF4C061922001F071FC40F2A7
:104010003311072001F06CFC2221002001F068FC24
:104020001FE78F48808849F2283188427ED141F2CB
:104030008F01EC2001F05CFC41F23421EF2001F013
:1040400057FC4FF48071012001F052FC4FF4E06105
:10405000022001F04DFC41F23001032001F048FC48
:104060000021042001F044FC40F20221082001F06C
:104070003FFC0021092001F03BFC00210A2001F057
:1040800037FC01210C2001F033FC00210D2001F050
:104090002FFC00210F2001F02BFC0021102001F04B
:1040A00027FC0721112001F023FC0021122001F040
:1040B0001FFC0021132001F01BFC0121072001F04F
:1040C00017FC322001F01CFF41F29041102001F05A
:1040D0000FFC40F22721112001F00AFC322001F0F0
:1040E0000FFF8A21122001F003FC322001F008FFAB
:1040F0004FF4D051132001F0FBFB0621292001F0E1
:10410000F7FB0D212B2001F0F3FB322001F0F8FE2C
:104110000021202001F0ECFB0021212001F0E8FB30
:10412000322001F0EDFE0021302000E074E001F0CB
:10413000DFFB40F20461312001F0DAFB40F205318F
:10414000322001F0D5FB0021352001F0D1FB40F6F3
:104150000941362001F0CCFB4FF40171372001F00A
:10416000C7FB40F20131382001F0C2FB40F2077179
:10417000392001F0BDFB00213C2001F0B9FB40F6E5
:104180000A213D2001F0B4FB322001F0B9FE0021EC
:10419000502001F0ADFBEF21512001F0A9FB0021DF
:1041A000522001F0A5FB40F23F11532001F0A0FB8B
:1041B0004FF42741602001F09BFB0121612001F0B9
:1041C00097FB00216A2001F093FB0021802001F081
:1041D0008FFB0021812001F08BFB0021822001F068
:1041E00087FB0021832001F083FB0021842001F064
:1041F0007FFB0021852001F07BFB1021902001F046
:1042000077FB4FF4C061922001F072FB40F2331152
:10421000072001F06DFB24E61148808849F2203127
:1042200088427DD10021084601F062FB4FF4807185
:10423000012001F05DFB4FF4E061022001F058FB2A
:1042400041F23001032001F053FB0021042001F072
:104250004FFB40F20221082001F04AFB002101E05F
:1042600054000020092001F043FB00210A2001F046
:104270003FFB01210C2001F03BFB00210D2001F050
:1042800037FB00210F2001F033FB322001F038FE14
:1042900040F20111072001F02BFB322001F030FE2B
:1042A0004FF48651102001F023FB0721112001F06B
:1042B0001FFB4FF48871122001F01AFB4FF430619C
:1042C000132001F015FB0021292001F011FB44F21D
:1042D00010012B2001F00CFB0021502001F008FB05
:1042E000EF21512001F004FB0021522001F000FBDE
:1042F00040F23F11532001F0FBFA4FF41C516020B3
:1043000001F0F6FA0121612001F0F2FA00216A20A1
:1043100001F0EEFA0021802001F0EAFA002100E02D
:1043200031E0812001F0E4FA0021822001F0E0FA7E
:104330000021832001F0DCFA0021842001F0D8FA6A
:104340000021852001F0D4FA1021902001F0D0FA4C
:104350000021922001F0CCFA0121932001F0C8FA4B
:104360004FF48871952001F0C3FA0021972001F0E5
:10437000BFFA0021982001F0BBFA40F27311072028
:1043800001F0B6FA6DE5FE48808849F23131884285
:104390007DD141F21401E72001F0AAFA4FF48071B7
:1043A000012001F0A5FA4FF40071022001F0A0FAFB
:1043B00041F23801032001F09BFA40F2022108206B
:1043C00001F096FA0021092001F092FA00210A205A
:1043D00001F08EFA00210C2001F08AFA00210D2054
:1043E00001F086FA00210F2001F082FA002110204E
:1043F00001F07EFA0721112001F07AFA0021122043
:1044000001F076FA0021132001F072FAC82001F0C1
:1044100077FD41F29061102001F06AFA40F2272105
:10442000112001F065FA322001F06AFD0C21122002
:1044300001F05EFA322001F063FD4FF400611320B9
:1044400001F056FA1121292001F052FA0B212B20FC
:1044500001F04EFA322001F053FD0021202001F03E
:1044600047FA40F23F11212001F042FA00213020AA
:1044700001F03EFA4FF48371312001F039FA002146
:10448000322001F035FA4FF40171352000E064E08C
:1044900001F02EFA41F20A61362001F029FA40F2C9
:1044A0000771372001F024FA4FF48371382001F0AE
:1044B0001FFA40F20771392001F01AFA40F2024166
:1044C0003C2001F015FA40F60F413D2001F010FAB2
:1044D0000021502001F00CFAEF21512001F008FAE0
:1044E0000021522001F004FA40F23F11532001F064
:1044F000FFF94FF41C51602001F0FAF9012161200D
:1045000001F0F6F900216A2001F0F2F90021802083
:1045100001F0EEF90021812001F0EAF9002182206A
:1045200001F0E6F90021832001F0E2F90021842066
:1045300001F0DEF90021852001F0DAF91021902048
:1045400001F0D6F94FF4C061922001F0D1F940F2A8
:104550003311072001F0CCF983E48948808845F2C3
:10456000084188427ED14FF48071012001F0C0F9EA
:104570004FF4E061022001F0BBF941F23001032069
:1045800001F0B6F90021042001F0B2F940F2072150
:10459000082001F0ADF90021092001F0A9F900215E
:1045A0000A2001F0A5F900210C2001F0A1F9002159
:1045B0000D2001F09DF900210F2001F099F9142040
:1045C00001F09EFC41F2B061102001F091F901214F
:1045D000112001F08DF90121172001F089F94FF424
:1045E0009C71122001F084F94FF40061132001F056
:1045F0007FF90921292001F07BF909212A2001F006
:1046000077F90021A42001F073F90021502001F076
:104610006FF9EF21512001F06BF90021522001F0D8
:1046200067F940F23F11532001F062F94FF41C5139
:10463000602001F05DF90121612001F059F90021AC
:104640006A2001F055F90021802001F051F9002184
:10465000812001F04DF90021822001F049F900216B
:10466000832000E023E001F043F90021842001F0E1
:104670003FF90021852001F03BF91321902001F042
:1046800037F90021922001F033F90321932001F042
:104690002FF94FF48871952001F02AF940F2731137
:1046A000072001F025F9322001F02AFCB8E4344853
:1046B000808841F2055188427ED10021072001F017
:1046C00017F9322001F01CFC4FF48E71122001F01A
:1046D0000FF90121A42001F00BF90F21082001F0AE
:1046E00007F908210A2001F003F908210D2001F043
:1046F000FFF840F20771302001F0FAF8072131206D
:1047000001F0F6F840F20361322001F0F1F84FF4C5
:10471000E061332001F0ECF840F20221342001F096
:10472000E7F80221352001F0E3F841F60F71362059
:1047300001F0DEF840F20771372001F0D9F80021CE
:10474000382001F0D5F80021392001F0D1F840F2ED
:1047500007713A2001F0CCF800213B2001F0C8F8A5
:1047600007213C2001F0C4F800213D2001F0C0F8F1
:10477000322001F0C5FB0121072001F0B9F801E06A
:10478000540000200121172001F0B2F8322001F07E
:10479000B7FB4FF4BD51102001F0AAF840F21721E9
:1047A000112001F0A5F84FF48F71122001F0A0F84C
:1047B0004FF47061132000E097E001F099F80021B8
:1047C0002A2001F095F80A21292001F091F84FF4F0
:1047D0009F71122001F08CF80021502001F088F820
:1047E000EF21512001F084F80021522001F080F8DF
:1047F00040F23F11532001F07BF84FF41C51602030
:1048000001F076F80121612001F072F800216A20A0
:1048100001F06EF80021802001F06AF8002181206B
:1048200001F066F80021822001F062F80021832067
:1048300001F05EF80021842001F05AF80021852063
:1048400001F056F81321902001F052F84FF4407116
:10485000922001F04DF80521932001F049F8002144
:10486000952001F045F80021972001F041F8002142
:10487000982001F03DF84FF48071012001F038F8E4
:104880004FF4E061022001F033F841F238010320D7
:1048900001F02EF80021042001F02AF800210C205C
:1048A00001F026F800210F2001F022F8002120203D
:1048B00001F01EF80021212001F01AF82121072023
:1048C00001F016F8142001F01BFB6121072001F014
:1048D0000FF8142001F014FB40F27311072001F0CF
:1048E00007F8142001F00CFB95E4FE4880884BF299
:1048F000055188427ED10021084600F0F9FF0021D1
:10490000084600F0F5FF0021084600F0F1FF002105
:10491000084600F0EDFF0121A42000F0E9FF14207B
:1049200001F0EEFA4FF41C51602000F0E1FF40F27C
:104930000221082000F0DCFF4FF40571302000F068
:10494000D7FF43F21571312000F0D2FF40F204612D
:10495000322000F0CDFF40F61661332000F0C8FF92
:1049600042F21121342000F0C3FF4FF4A85135204A
:1049700000F0BEFF48F20751362000F0B9FF41F2C7
:104980000741372000F0B4FF41F20341382000F026
:10499000AFFF2021392000F0ABFF1A21902000F05A
:1049A000A7FF0021102000F0A3FF0721112000F035
:1049B0009FFF0021122000F09BFF0021132000F038
:1049C00097FF142001F09CFA4FF4E661102000F0EC
:1049D0008FFF40F23711112000F08AFF142001F000
:1049E0008FFA4FF4DC71122000F082FF142001F0E6
:1049F00087FA00E083E04FF47061132000F078FF45
:104A000080212A2000F074FF4821292000F070FF47
:104A1000142001F075FA4FF48071012000F068FF56
:104A20004FF4E061022000F063FF41F238010320FF
:104A300000F05EFF40F20221082000F059FF002143
:104A40000A2000F055FF00210C2000F051FF00214A
:104A50000D2000F04DFF30210E2000F049FF002115
:104A6000502000F045FFEF21512000F041FF0021D0
:104A7000522000F03DFF40F23F11532000F038FF7C
:104A80004FF41C51602000F033FF0121612000F041
:104A90002FFF00216A2000F02BFF1121902000F051
:104AA00027FF4FF4C061922000F022FF40F2024144
:104AB000932000F01DFF0221942000F019FF142024
:104AC00001F01EFA0121072000F012FF142001F06E
:104AD00017FA6121072000F00BFF40F27311072045
:104AE00000F006FF0021202000F002FF002121201D
:104AF00000F0FEFE2221002000F0FAFE11E37948CA
:104B000080884CF2055188427ED10021084600F091
:104B1000EFFE0021084600F0EBFE142001F0F0F952
:104B20000021084600F0E4FE0021084600F0E0FE07
:104B30000021084600F0DCFE0021084600F0D8FE07
:104B40000121A42000F0D4FE142001F0D9F94FF483
:104B50001C51602000F0CCFE40F60601082000F059
:104B6000C7FE40F20371302000F0C2FE0121312067
:104B700000F0BEFE0421322000F0BAFE4FF4817135
:104B8000332000F0B5FE4FF44071342000F0B0FE49
:104B900040F20311352000F0ABFE1F21362000F05B
:104BA000A7FE40F20371372000F0A2FE0121382059
:104BB00000F09EFE0421392000F09AFE152190207D
:104BC00000F096FE4FF48261102000F091FE40F25A
:104BD0004721112000F08CFE4FF4DE71122000F00E
:104BE00087FE4FF46061132000F082FE782001F010
:104BF00087F94FF48071012000F07AFE4FF40071C4
:104C0000022000F075FE00E050E041F23001032088
:104C100000F06EFE08210A2000F06AFE00210C2040
:104C200000F066FE20210E2000F062FE00210F2021
:104C300000F05EFE0021202000F05AFE002121201D
:104C400000F056FE3D212A2000F052FE142001F013
:104C500057F92D21292000F04BFE0021502000F0B3
:104C600047FE4DF2EF01512000F042FE002152209C
:104C700000F03EFE40F23F11532000F039FE0021CB
:104C8000612000F035FE00216A2000F031FE4FF473
:104C90004071922000F02CFE0521932000F028FEA8
:104CA0004FF48071072000F023FE3AE20D4880881F
:104CB00044F2315188427CD10121002000F018FEDD
:104CC0000A2001F01DF941F22861102000F010FEC9
:104CD0000E21122000F00CFE40F63921132000F0C6
:104CE00007FE01E0540000200A2001F009F94021EC
:104CF000112000F0FDFD5021152000F0F9FD0A20E3
:104D000001F0FEF81E21122000F0F2FD0A2001F051
:104D1000F7F84FF4B151102000F0EAFD42F63921C6
:104D2000132000F0E5FD0A2001F0EAF84FF480714D
:104D3000012000F0DDFD4FF44071022000F0D8FDAD
:104D400041F23801032000F0D3FD40F20221082097
:104D500000F0CEFD08210A2000F0CAFD002130201D
:104D600000F0C6FD40F20241312000F0C1FD4FF4D9
:104D70008371322000F0BCFD40F20351332000F07B
:104D8000B7FD4FF48271342000F0B2FD40F20131E2
:104D9000352000F0ADFD40F20771362000F0A8FD8F
:104DA00040F20531372000F0A3FD4FF402713820A6
:104DB00000E040E000F09CFD40F60B71392000F06F
:104DC00097FD0221412000F093FD4FF41C5160201B
:104DD00000F08EFD0121612000F08AFD4FF4047186
:104DE000902000F085FD4FF48571922000F080FD49
:104DF0000421932000F07CFD4FF48071A02000F08E
:104E000077FD0121072000F073FD2121072000F02C
:104E10006FFD2321072000F06BFD3321072000F0F8
:104E200067FD40F23311072000F062FD0021A02051
:104E300000F05EFD75E1C148808844F2355188423A
:104E40007ED13021152000F053FD10219A2000F072
:104E50004FFD2021112000F04BFD43F2284110208E
:104E600000F046FD0221122000F042FD41F238011F
:104E7000132000F03DFD282001F042F812210846E1
:104E800000F036FD282001F03BF843F220411020CD
:104E900000F02EFD43F23801132000F029FD4620DA
:104EA00001F02EF80021302000F022FD40F20241F6
:104EB000312000F01DFD40F20731322000F018FDD6
:104EC0004FF44171332000F013FD0421342000F031
:104ED0000FFD40F20141352000F00AFD40F207715C
:104EE000362000F005FD40F20531372000F000FDCE
:104EF0004FF4C261382000F0FBFC4FF4C26139204E
:104F000000F0F6FC4FF48071012000F0F1FC4FF44A
:104F10004071022000F0ECFC41F23001032000F06F
:104F2000E7FC40F60801082000F0E2FC08210A2016
:104F300000F0DEFC4FF41C51602000F0D9FC00E0D2
:104F400031E00121612000F0D3FC4FF49F719020EB
:104F500000F0CEFC4FF48071922000F0C9FC4FF4B9
:104F60008071932000F0C4FC4FF44051A02000F069
:104F7000BFFC1021A32000F0BBFC0121072000F0A2
:104F8000B7FC2121072000F0B3FC2321072000F00B
:104F9000AFFC3321072000F0ABFC40F233110720B7
:104FA00000F0A6FCBDE06548808841F663118842A8
:104FB000F8D1E22000F08CFC1D2000F083FC0220E0
:104FC00000F080FC042000F07DFC642000F0BEFFB7
:104FD000E02000F07DFC012000F074FC0A2000F0CD
:104FE0008FFFE02000F074FC032000F06BFC0C202D
:104FF00000F086FF012000F06BFC0A2000F080FF2B
:10500000E62000F065FC2F2000F05CFCFF2000F0A3
:1050100059FCFF2000F056FCB02000F059FC202085
:1050200000F050FC002000F04DFC032000F04AFC92
:1050300040F21F3000F046FC012000F043FC40F23B
:10504000DF1000F03FFC002000F03CFCB42000F03A
:105050003FFC042000F036FC40F21F4000F032FC20
:10506000002000F02FFC2E2000F02CFC002000F08F
:1050700029FC002000F026FC002000F023FC00208A
:1050800000F020FCB62000F023FC022000F01AFC07
:105090004FF4037000F016FC002000F013FC172002
:1050A00000F010FC152000F00DFC002000F00AFCC0
:1050B000002000F007FCF02000F00AFC032000F0C4
:1050C00001FC292000F004FCD02000F001FC0020AD
:1050D00000F0F8FBBE2000F0FBFB052000F0F2FB27
:1050E000FE2000F0EFFB012000F0ECFB002000F0C0
:1050F000E9FB002000F0E6FB002000F0E3FBB82015
:1051000000F0E6FB032000F0DDFB012000F0DAFBFD
:10511000BA2000F0DDFB012000F0D4FB642000F099
:1051200027F80020FCF7C4FA0120054908604FF673
:10513000FF70FCF787FA1FB000BD0000540000208C
:10514000A001244208B5034800880090BDF8000083
:1051500008BD00000008006C10B50446204600F0B1
:10516000B7FB052000F0F2FEFFF7ECFF10BD0000DA
:105170002DE9F0470446BE2000F0AAFB052000F010
:10518000A1FB204601F021FA07464FF066320C4B96
:1051900001F02EFA054601F0EBF91FFA80F94846B6
:1051A00000F090FB012000F08DFBFF2000F08AFB57
:1051B000002000F087FB002000F084FBBDE8F087B2
:1051C0006666044070B5044600230026B74880791F
:1051D00001280BD1B548808846F60401884205D0E5
:1051E000B248808841F66311884208D1AF4880797F
:1051F000F0B9AE48808841F66311884218D1082C76
:1052000015D2DFE804F00406080A0C0E101206247A
:105210000DE007240BE0042409E0052407E0012445
:1052200005E0002403E0032401E0022400BF00BFE6
:105230009E48808849F24131884217D09B48808837
:1052400046F60401884211D09848808845F2103112
:1052500088420BD09548808845F21051884205D08D
:105260009248808841F6631188427DD1082C1CD277
:10527000DFE804F00406090C0F12151800BF14E053
:1052800043F0800311E043F040030EE043F0C0031D
:105290000BE043F0200308E043F0600305E043F037
:1052A000A00302E043F0E00300BF00BF7F48808816
:1052B00045F21051884202D14FF4585600E036268C
:1052C0007A48808845F2103188420DD0774880882E
:1052D00045F21051884207D07448808841F6631126
:1052E000884201D043F008037048808846F60401E4
:1052F000884201D143F002031946304600F0F8FA23
:105300006A48808841F6631188421DD003F020006E
:1053100068B16648008865494988884214DA63485C
:105320000588408861490880084645800CE05F4850
:1053300000885E494988884206DD5C4805884088C7
:105340005A490880084645805848808845F21051DF
:10535000884254D15549488900F0BAFA002000F03B
:10536000B1FA5249498900E078E0491C88B200F05E
:10537000AFFA002000F0A6FA4C494989891C88B28E
:1053800000F0A6FA49490988491EC1F30F2000F030
:1053900099FA46494989C91C88B200F099FA4349EB
:1053A0000978491EC8B200F08DFA4049888900F09A
:1053B0008FFA002000F086FA3C498989491C88B29E
:1053C00000F086FA002000F07DFA38498989891CAE
:1053D00088B200F07DFA35494988491EC1F30F2093
:1053E00000F070FA31498989C91C88B200F070FA5E
:1053F0002E498978491EC8B200F064FA55E02B495D
:10540000488900F065FA002000F05CFA002000F006
:1054100059FA26490988491EC1F30F2000F052FAB3
:1054200022490978491EC8B200F04CFA1F49888900
:1054300000F04EFA002000F045FA002000F042FA99
:105440001A494988491EC1F30F2000F03BFA174959
:105450008978491EC8B200F035FA26E0082C1CD223
:10546000DFE804F004070A0D0F12151843F03003AB
:1054700013E043F0100310E043F020030DE000BF01
:105480000BE043F0380308E043F0280305E043F065
:10549000180302E043F0080300BF00BF032643F4F3
:1054A00080531946304600F023FA70BD54000020A6
:1054B00010B503460C466748808849F2413188425E
:1054C00005D06448808845F21031884214D1614982
:1054D000488900F0FDF9181200F0F4F9D8B200F094
:1054E000F1F95C49888900F0F3F9201200F0EAF93B
:1054F000E0B200F0E7F9ABE05648808846F60401D8
:1055000088421DD153488079012804D15148008830
:10551000401EC01A83B24F49488900F0D9F91812C9
:1055200000F0D0F9D8B200F0CDF94A49888900F0EE
:10553000CFF9201200F0C6F9E0B200F0C3F987E01D
:105540004448808841F66311884247D141488079B8
:10555000A8B940480088401EC01A83B23D49488916
:1055600000F0B6F9002000F0ADF9002000F0AAF933
:10557000181200F0A7F9D8B200F0A4F916E03549E6
:10558000488900F0A5F9181200F09CF9D8B200F093
:1055900099F930490988491EC1F30F2000F092F9AA
:1055A0002C490978491EC8B200F08CF9294988892C
:1055B00000F08EF9201200F085F9E0B200F082F9D7
:1055C00024494988491EC1F30F2000F07BF9214985
:1055D0008978491EC8B200F075F939E01D48808805
:1055E00045F21051884220D11A49488900F070F9DB
:1055F000181200F067F917494989491C88B200F070
:1056000067F9D8B200F05EF91249888900F060F9B4
:10561000201200F057F90F498989491C88B200F01F
:1056200057F9E0B200F04EF912E00A4880790128FB
:1056300004D108480088401EC01A83B20549488931
:10564000194600F055F903498889214600F050F9C0
:1056500010BD0000540000202DE9F84F80460E4692
:1056600017461C46B3462046E31704EB5373DB1082
:1056700021464FEAE47C04EB5C7C4FEAEC0CA4EBA3
:10568000CC0CBCF1000F02D04FF0010C01E04FF048
:10569000000C6344224604EBD27C4FEA6C0C03FB03
:1056A0000CF3DBB20093A7F12000C7B2002556E04F
:1056B0000C2C07D107EB47002B4901EB800010F8B9
:1056C000059013E0102C05D1284800EB071010F8C6
:1056D00005900BE0182C07D107EBC700244901EB1C
:1056E000800010F8059001E0BDE8F88F4FF0000A47
:1056F0002FE009F0800030B11E4802883146404654
:10570000FCF7B6F807E00A9828B91B48028831462A
:105710004046FCF7ADF84FEA49604FEA1069701C4B
:1057200086B216484088B04200DCDDE7A6EB0B00ED
:10573000A0420AD15E4608F101001FFA80F80F4826
:105740000088404500DCCFE706E00AF1010000F0E8
:10575000FF0ABAF1080FCCDB00BF681CC5B2009885
:105760008542A5DB00BFBFE7B66A00082A6F0008C4
:105770001A7500083000002032000020540000207C
:105780002DE9F84F07460D4690461C46AB4620468D
:10579000E21704EB5272D2102146E31704EB537365
:1057A000DB10A4EBC3030BB1012300E000231A4478
:1057B000624392B20092002643E0102C07D1A8F178
:1057C000010006EB4010214911F800900BE0202C5D
:1057D00007D1A8F1010006EBC0101D4911F8009097
:1057E00001E0BDE8F88F4FF0000A24E009F08000E6
:1057F00028B11848028829463846FCF739F84FEA9C
:1058000049604FEA1069681C85B213484088A84275
:1058100000DCE6E7A5EB0B00A04208D15D46781C52
:1058200087B20D480088B84200DCDAE706E00AF1EA
:10583000010000F0FF0ABAF1080FD7DB00BF701CAF
:1058400086B200988642B8DB00BFCAE776820008BD
:10585000B682000830000020540000202DE9F847EF
:1058600004460D4690469946DDE9096704F0FF0AB3
:1058700008EB04001FFA80F809EB05001FFA80F915
:1058800016E0444502DB5446A81985B24D4500DBBD
:1058900014E0002000903A78334629462046FFF76E
:1058A000DBFE304606EBD07104EB61018CB27F1C4D
:1058B00038787E2802DC38782028E2DA00BFBDE89C
:1058C000F887000001490880704700000008006C5C
:1058D0000149088070470000FE07006C02480089FB
:1058E000024908807047000054000020FE07006C49
:1058F000024A1080921C118070470000FE07006C65
:1059000000BFFEE77047000070B5002100230F22A2
:10591000C47804B3154C246804F4E064C4F5E0646E
:10592000210AC1F10403CA40447804FA03F18478DF
:105930001440214309010E4C0678A155047804F067
:105940001F050124AC4005786D11AD0005F1E0257F
:10595000C5F8004109E0047804F01F050124AC40BB
:10596000044D0678761145F8264070BD0CED00E038
:1059700000E400E080E100E07047000029B1064A41
:1059800052690243044B5A6104E0034A526982435C
:10599000014B5A61704700000010024029B1064ACD
:1059A00092690243044B9A6104E0034A926982437C
:1059B000014B9A61704700000010024030B5002191
:1059C0000022002400232D4D6D6805F00C0121B14B
:1059D000042905D0082923D105E0294D056022E0DE
:1059E000274D05601FE0254D6D6805F47012234DAD
:1059F0006D6805F48034022505EB92421CB9214DF7
:105A0000554305600BE01D4D6D6805F400351DB173
:105A10001C4D5543056002E0194D5543056002E0F9
:105A2000174D056000BF00BF144D6D6805F0F00113
:105A30000909154D6B5C0568DD4045600F4D6D68CB
:105A400005F4E061090A104D6B5C4568DD40856036
:105A50000A4D6D6805F46051C90A0B4D6B5C4568D1
:105A6000DD40C560054D6D6805F44041890B074D6B
:105A70006B5CC568B5FBF3F5056130BD00100240F5
:105A800000127A0000093D003E0000204E00002078
:105A9000704710B500F002F810BD00000CB50020F2
:105AA000019000903348006840F48030314908602C
:105AB00000BF3048006800F4003000900198401C9E
:105AC0000190009818B90198B0F5A06FF1D129485C
:105AD000006800F4003010B10120009001E00020C7
